:020000040800F2
:1000000000A00020B9020008C1020008C5020008D3
:10001000390300083D0300088503000800000000C4
:10002000000000000000000000000000CD030008F8
:10003000D103000800000000D5030008D903000820
:10004000E9030008E9030008E9030008E9030008E0
:10005000E9030008E9030008910C0008E90300081F
:10006000E9030008E9030008E9030008E9030008C0
:10007000E9030008E9030008E9030008E9030008B0
:10008000E9030008E9030008E9030008E9030008A0
:10009000E9030008E9030008E9030008E903000890
:1000A000E9030008E9030008E9030008E903000880
:1000B000E9030008AD0C0008E9030008E9030008A3
:1000C000E9030008E9030008E9030008E903000860
:1000D000E9030008E9030008E9030008E903000850
:1000E000E9030008E9030008E9030008E903000840
:1000F000E9030008E9030008E9030008E903000830
:10010000000000000000000000000000E9030008FB
:10011000E9030008E9030008E9030008E90300080F
:10012000E9030008E9030008E9030008E9030008FF
:10013000E9030008E90300080000000000000000D7
:10014000E9030008E9030008E903000800000000D3
:10015000000000000000000000000000000000009F
:100160000000000000000000E9030008E9030008A7
:10017000E90300080000000000000000000000008B
:1001800000000000E903000800B583B000F088FA21
:10019000384B394A1360394A136039490CE00A6810
:1001A0004B6801F10C04886803E01168196004339E
:1001B00004329842F9D82146324B9942EFD32E4B64
:1001C0001A68314B9A4204D12C4B1A682F4B9A4231
:1001D00000D0FEE7274B2E4A13602E4A13602E4BA9
:1001E0000AE0194651F8082B5B6802E00020106015
:1001F00004329A42FAD30B46284A9342F1D3244B55
:100200001B6813B9234B1B6803B1FEE700F05AFAD1
:10021000694601A800F08AF9214C224B1C1BA4104E
:10022000002504E01E4B53F8253098470135AC42B9
:10023000F8DC1D4C1D4B1C1BA410002504E01A4BC0
:1002400053F8253098470135AC42F8DC0099019805
:1002500000F06AFD0546164C164B1C1BA41004E06A
:10026000013C134B53F824309847002CF8DC284607
:1002700000F0F8F8BABADECA0000002080000020C2
:10028000EC030008040400087856341232547698BF
:100290008400002040020020040400081404000828
:1002A00014040008140400081404000814040008CE
:1002B000140400081404000808B5FFF765FF00BF28
:1002C00000BEFEE71EF0040F0CBFEFF30880EFF353
:1002D00009807146414A10472DE9F04182B0044639
:1002E0008846134B5E6B9F6B9D6A1B6B13F0020F6E
:1002F0000DD00F4BDB6A002B09DA4BF6AB6100F037
:100300005DFA20B14FF00042094BDA620CE0094877
:1003100000F078F9CDF800803B4632462946204669
:1003200000F0D4F900BEFEE702B0BDE8F08100BFE6
:1003300000ED00E0841C000800BEFEE71EF0040F84
:100340000CBFEFF30880EFF309807146244A104791
:100350002DE9F04182B004468846084B5E6B9F6BE6
:100360009D6A074800F04EF9CDF800803B463246C2
:100370002946204600F0AAF900BEFEE700ED00E0A5
:10038000941C00081EF0040F0CBFEFF30880EFF37D
:1003900009807146134A10472DE9F04182B00446A6
:1003A0008846084B5E6B9F6B9D6A074800F02AF9F0
:1003B000CDF800803B4632462946204600F086F9BB
:1003C00000BEFEE700ED00E0A01C000800BEFEE756
:1003D00000BEFEE700BEFEE770470000D90200083D
:0C03E000510300089903000800BEFEE76E
:1003EC00541E00080000002084000020541E000849
:1003FC0000000010000000108400002044020020C7
:08040C000000001000000010C8
:1004200008B50D4B1B6813B90C4A0B4B1A600A4BED
:100430001A68C31C23F00303134409498B4206D9ED
:1004400000F0F2FE0C2303604FF0FF3008BD0249BC
:100450000B60104608BD00BF880000204402002049
:10046000009C002000B508B9044D00E0044D18249C
:1004700020462946ABBE0446FEE700BF2600020028
:10048000230002002DE9F04184B0234F0197032699
:10049000039600230293012401AD20462946ABBEFA
:1004A00080461E4BC3F800800197039604230293F5
:1004B00020462946ABBE8046194BC3F80080019701
:1004C00003960823029320462946ABBE0446154BEB
:1004D0001C60B4F1FF3F03D1114B1A68114B1A6035
:1004E000002305E04FF0FF310F4A42F8331001338B
:1004F000132BF7DD0C4B094A12681A6000225A6070
:10050000074909689960DA600649096819615A6102
:1005100004B0BDE8F08100BF5C1B00089000002023
:100520008C000020BC00002010010020F0B583B03A
:1005300006460D46304B00934F2301936F4615241A
:1005400020463946ABBE0446002C42D12A4B83F8E4
:100550004F40009A2746214636E0E1B92748006817
:10056000184490F90100002803DB092B03D1012076
:1005700002E0012000E0002028BB082C2ADC222B0E
:1005800001D0272B01D101321F461D4B43F82420F7
:100590000134012117E02FB19F4214D100211170C5
:1005A0000F4610E015480068184490F90100002833
:1005B00003DB092B03D1012302E0012300E0002328
:1005C0000BB100211170013292F90030002BC4D11F
:1005D00000E000242CB9084B00221A70084A13606E
:1005E0000134074B002243F8242034602B60FFF7CE
:1005F00049FF03B0F0BD00BFC0000020180000207C
:10060000940000200FB400B583B004AB53F8042B62
:1006100001938021064800F0B1FE002803DD014669
:10062000034800F039F803B05DF804EB04B07047FC
:10063000B00100202DE9F04385B004460F46435633
:1006400013BB042528462146ABBE04461FE03546B1
:10065000102E28BF1025002306E014F9011B04AA60
:100660001A4402F8101C0133AB42F6D304AA134417
:10067000002203F8102CE9464FF004084046494692
:10068000ABBE8046761B00E00E46002EDFD138461A
:1006900005B0BDE8F08300BF08B5FFF7CBFF08BD8C
:1006A00008B500F063F9054B054A9A60D3F8882035
:1006B00042F47002C3F8882008BD00BF00ED00E0DE
:1006C0000000000808B500F089F908BDF8B5044637
:1006D0000D4617461E462648FFF794FF2168254819
:1006E000FFF790FF61682448FFF78CFFA16823485B
:1006F000FFF788FFE1682248FFF784FF216921485E
:10070000FFF780FF61692048FFF77CFFA1691F4860
:10071000FFF778FFE1691E48FFF774FF1D48FFF7F8
:1007200071FF29461C48FFF76DFF1C4CE16A1C480D
:10073000FFF768FF216B1B48FFF764FFE16B1A4866
:10074000FFF760FF15F0800F03D039461748FFF719
:1007500059FF15F4004F03D031461548FFF752FFFB
:100760001448FFF74FFF06991348FFF74BFFF8BDFA
:10077000681B0008781B0008881B0008981B0008ED
:10078000A81B0008B81B0008C81B0008D81B0008DD
:10079000E81B0008F81B0008041C000800ED00E03E
:1007A000141C0008241C0008341C0008441C000809
:1007B000541C0008641C00086C1C000838B58369D0
:1007C0001B888B426FD1044603684568013B302B80
:1007D0006BD8DFE803F0421D63635A2C2F291919E7
:1007E0006A19191919193219206A19236A356A6A9E
:1007F0006A6A6A6A6A6A6A6A6A6A6A6A6A6A6A6A59
:100800006A6A6A6A6A1919004FF0FF33036045E0AB
:100810000023036042E0002303603FE000232B60DD
:100820006B60AB60EB6039E00023036036E0AB68DF
:10083000036033E00023036030E0002303602DE019
:10084000BFF34F8F1A49CA6802F4E062194B134391
:10085000CB60BFF34F8F00BFFDE71749286800F05A
:1008600057FD70B96B6813B90123236016E0042BA0
:1008700002D10223236011E0082B02D1032323605D
:100880000CE04FF0FF33236008E02B68023B012BA4
:1008900002D80023036001E0AB680360A369023360
:1008A000A361012038BD002038BD002038BD00BF45
:1008B00000ED00E00400FA055C1B000882B0002394
:1008C00001930093274A136843F480331360254B48
:1008D0001B6803F400330093019B01330193009BD9
:1008E0001BB9019BB3F5A06FF1D11E4B1B6813F42C
:1008F000003F02D00123009301E000230093009BFE
:10090000012B2CD11222184B1A60A3F580535A6880
:100910005A605A685A605A6842F480625A605A684B
:1009200022F47C125A605A6842F4E8125A601A683B
:1009300042F080721A600B4B1B6813F0007FFAD0F4
:10094000084B5A6822F003025A605A6842F00202C9
:100950005A60044B5B6803F00C03082BF9D102B01A
:10096000704700BF001002400020024010B5174C35
:10097000D4F8883043F47003C4F88830144B1A68F4
:1009800042F001021A605968124A0A405A601A6815
:1009900022F0847222F480321A601A6822F48022D3
:1009A0001A605A6822F4FE025A60DA6A22F00F02D4
:1009B000DA62196B084A0A401A6300229A60FFF74C
:1009C0007DFF4FF00063A36010BD00BF00ED00E0AD
:1009D000001002400CC07FF8CCFC00FF1D4B5B6890
:1009E00003F00C03042B06D0082B08D01BBB1A4ABB
:1009F0001A4B1A6022E0184A184B1A601EE0154A7A
:100A000053685268C3F38343023312F4803F05D125
:100A1000134A02FB03F3114A13600FE00D4AD26A36
:100A200002F00F02511C0C4AB2FBF1F202FB03F37D
:100A30000A4A136002E0084A084B1A60054B5B68DB
:100A4000C3F30313074AD35CDAB204490B68D340FB
:100A50000B6070470010024000127A001400002062
:100A600000093D000400002008B540F2912000F08C
:100A70009DFB40F2952000F099FB40F2922000F09F
:100A800095FB40F2962000F091FB40F20B3000F015
:100A90008DFB40F20D3000F089FB40F2813000F018
:100AA00085FB4FF4407000F081FB08BD38B51D4D4B
:100AB0004FF4007300220221284600F041F91A4C3D
:100AC0004FF4807300220221204600F039F94FF4E0
:100AD000007300220221204600F032F90223002296
:100AE0000121204600F02CF90123022200214FF0C1
:100AF000904000F025F94FF400720221284600F0E2
:100B000041F94FF480720A21204600F03BF94FF47E
:100B100000720A21204600F035F90221204600F03B
:100B20000DF938BD001000480004004870B54E4D66
:100B3000284600F04FF94D4C204600F04BF94C4E42
:100B4000304600F047F900231A461946284600F0BF
:100B500084F900231A461946204600F07EF9002346
:100B60001A461946304600F078F940F257212846D7
:100B700000F086F940F25721204600F081F94EF648
:100B80006021304600F07CF906220021284600F062
:100B90007BF906220221204600F076F90622042184
:100BA000204600F071F90021284600F039FA0221B0
:100BB000204600F035FA0421204600F031FA0621E3
:100BC000304600F02DFA42F6E0620021284600F09F
:100BD0005BFA4FF496620221204600F055FA00229B
:100BE0000421204600F050FA45F6B651284600F0A0
:100BF00049F940F65F11204600F044F940F65F11D4
:100C0000204600F03FF940F2AF41304600F03AF99B
:100C1000284600F049FA204600F046FA284600F03F
:100C200025F9204600F022F9304600F01FF9284649
:100C300000F021F9204600F01EF9304600F01BF9C3
:100C40001D2000F0D3FA01211D2000F0DDFA012162
:100C5000304600F0F5F8062000F0C8FA0121062021
:100C600000F0D2FA70BD00BF002C014000340140FA
:100C70000004004008B54FF09041012000F056FA02
:100C80000221012000F01EFA012000F039FA08BD0F
:100C900008B5012000F044FA28B10348FFF7B2FC80
:100CA000012000F037FA08BDB01C000810B5012182
:100CB000194800F0C9F870B31848FFF7A3FC0121E8
:100CC000154800F0C7F8164B1B7813F0FF0F0FD133
:100CD0000122134B1A70134C4FF4966202212046E6
:100CE00000F0D2F900220421204600F0CDF910BD19
:100CF0000B4B1B7813F0FF0F0DD00022084B1A701E
:100D0000084C0221204600F0BFF94FF496620421FE
:100D1000204600F0B9F910BD00040040B41C0008E2
:100D2000300200200034014008B5FFF79DFEFFF7B8
:100D3000BDFEFFF7FBFEFFF79DFFFEE781617047F9
:100D40002DE9F0410668C568002443FA04F7FF075F
:100D500011D567004FF0030C0CFA07FC6FEA0C0C7E
:100D600001FA07F80CEA06060CEA050502FA07F78D
:100D700046EA08063D430134102CE6D10660C56002
:100D8000BDE8F081F0B5056A446A002342FA03F633
:100D9000F70707D59E000F27B74025EA070501FA98
:100DA00006F635430133082BF0D1002303F1080682
:100DB00042FA06F6F60707D59E000F27B74024EA49
:100DC000070401FA06F634430133082BEED105621D
:100DD0004462F0BD184B984225D00DD8A3F540636E
:100DE00098421AD003F58063984219D0B0F1804F31
:100DF00020D14FF400701BE0104B98420AD003F54D
:100E00000063984212D0A3F59033984212D140F279
:100E100005200DE040F28B100AE040F2012007E0CF
:100E200040F2022004E04FF4017001E040F28D1026
:100E300000F0CAB9704700BF00100040002C01400C
:100E4000C3681943C160704703690B420CBF00209F
:100E500001207047C9430161704710B5046813430E
:100E600024F45C7419430C43046010BD036823F040
:100E7000080303607047036843F001030360704791
:100E800081627047C1627047062900F2C880DFE8BE
:100E900011F00700C6003600C6006800C6009600C4
:100EA000836923F00303836183698361836923F08A
:100EB00070038361072A00F2B280DFE802F0330496
:100EC000080C1014181C836943F0100347E0836971
:100ED00043F0200343E0836943F030033FE083693C
:100EE00043F040033BE0836943F0500337E08369FC
:100EF00043F0600333E0836943F070032FE08369BC
:100F000023F44073836183698361836923F4E0433D
:100F10008361072A00F28380DFE802F004060A0EEC
:100F200012161A1E83691AE0836943F4805316E08F
:100F3000836943F4005312E0836943F440530EE0A5
:100F4000836943F480430AE0836943F4A04306E0E5
:100F5000836943F4C04302E0836943F4E04383615F
:100F60007047C36923F00303C361C369C361C369E5
:100F700023F07003C361072A51D8DFE802F032047E
:100F8000080C1014181CC36943F0100346E0C36931
:100F900043F0200342E0C36943F030033EE0C369FD
:100FA00043F040033AE0C36943F0500336E0C369BD
:100FB00043F0600332E0C36943F070032EE0C3697D
:100FC00023F44073C361C369C361C36923F4E0437D
:100FD000C361072A23D8DFE802F004060A0E1216BE
:100FE0001A1EC3691AE0C36943F4805316E0C3694B
:100FF00043F4005312E0C36943F440530EE0C36965
:1010000043F480430AE0C36943F4A04306E0C369A4
:1010100043F4C04302E0C36943F4E043C361704753
:10102000062915D8DFE801F0041408140C14100088
:10103000036A43F001030AE0036A43F0100306E089
:10104000036A43F4807302E0036A43F4805303624B
:101050000C4B984203D003F50063984211D1032949
:1010600007D0052909D001290BD1036A43F00403F5
:1010700006E0036A43F0400302E0036A43F480633E
:1010800003627047002C014006290CD8DFE801F00C
:10109000040B060B080B0A0042637047826370471B
:1010A000C263704702647047054B984203D003F552
:1010B0000063984203D1436C43F400434364704798
:1010C000002C014001290BD002D302290DD070471A
:1010D0000A4B1A6802431A605A6822EA00000AE0C2
:1010E000064B1A6822EA000202E0044B1A68024327
:1010F0001A605A6810435860704700BF08040140E6
:10110000034B1A6802431A605A68104358607047CC
:1011100000040140014B1860704700BF14040140F7
:10112000014B1B681840704714040140F0B50023C0
:10113000012202FA03F404422BD0184CA14213D02E
:1011400007D8A4F50064A14213D0154A914209D0F2
:1011500006E0144A914209D002F58062914207D01C
:10116000002206E0022204E0032202E0042200E062
:1011700005220D4C23F00306344403F00305AD00B3
:1011800026680F27AA4007FA05F526EA05052A432F
:1011900022600133102BCBD1F0BD00BF000C004802
:1011A000000800480010004808000140430903F10E
:1011B000804303F5043300F01F001A68012101FA8F
:1011C00000F0104318607047430903F1804303F5B2
:1011D000043300F01F001A68012101FA00F00243F5
:1011E0001A601A6822EA000018607047054B42092D
:1011F00003EB820300F01F00012202FA00F01860E6
:10120000704700BF00E100E0502804D900F00F0053
:10121000044BC154704700F1604000F56440017018
:10122000704700BF14ED00E0014B1868704700BF25
:101230007C00002070B5CD1C25F0030508350C2D71
:1012400038BF0C25002D064601DBA94202D90C232C
:10125000336046E000F0A0F8234B1C681A46214694
:10126000A1B10B685B1B0ED40B2B03D90B60CC1800
:10127000CD501EE08C420DBF63684B686360136005
:1012800018BF0C4615E00C464968E9E7174C23687F
:101290001BB9304600F02CF820602946304600F09B
:1012A00027F8431C18D0C41C24F00304A0420DD11D
:1012B0002560304600F071F804F10B00231D20F08A
:1012C0000700C31A0ED05A42E25070BD211A3046B0
:1012D00000F00EF80130EBD10C233360304600F003
:1012E0005CF8002070BD00BF3802002034020020EE
:1012F00038B5064C0023054608462360FFF790F8F2
:10130000431C02D1236803B12B6038BD3C0200208E
:1013100010F8012B11F8013B012A28BF9A42F7D09F
:10132000D01A704730B5141E05469BB0184604DA33
:101330008B232B604FF0FF301DE04FF40273ADF8AC
:101340000C3014BF04F1FF332346029305934FF68C
:10135000FF7300910491ADF80E3002461E9B694662
:10136000284600F0C3F8431CBCBF8B232B6014B18C
:10137000009B00221A701BB030BD000007B500931F
:1013800013460A46014603480068FFF7CBFF03B047
:101390005DF804FB7C0000207047704738B50546B7
:1013A000002946D051F8043C0C1F002BB8BFE418AC
:1013B000FFF7F2FF1F4A1368114613B96360146008
:1013C00032E0A3420ED92268A018834204BF1868F5
:1013D0005B68636004BF121822600C6024E0A242C4
:1013E00003D813465A68002AF9D118681918A1427F
:1013F0000BD12168014458188242196014D1106839
:1014000052685A60014419600EE002D90C232B6027
:101410000AE021686018824204BF10685268626066
:1014200004BF091821605C602846BDE83840FFF71A
:10143000B4BF38BD380200202DE9F0478E689E42C7
:1014400082460C46914698463ED88A8912F4906F9F
:101450003AD0256809696F1A6569022305EB4505CD
:1014600095FBF3F57B1C43449D4238BF1D46530555
:101470000FD52946FFF7DEFE064698B13A462169A8
:1014800000F016FBA38923F4906343F08003A3814B
:1014900013E02A4600F032FB064670B92169504637
:1014A000FFF77CFF0C23CAF80030A38943F0400308
:1014B000A3814FF0FF30BDE8F087266165613E44AF
:1014C000ED1B2660A5604646464528BF4646324687
:1014D0004946206800F0F7FAA3689B1BA3602368C5
:1014E0001E4426600020BDE8F08700002DE9F04F83
:1014F0009DB0804603938B891C060D4616460DD57C
:101500000B695BB94021FFF795FE2860286118B987
:101510000C23C8F80030CDE040236B610023099311
:1015200020238DF82930DFF89CB130238DF82A3044
:1015300037463C4614F8013B1BB9B7EB060910D0FF
:1015400003E0252BF9D02746F3E74B4632462946E0
:101550004046FFF771FF013000F0A780099B4B4424
:1015600009933B78002B00F0A08000234FF0FF325E
:1015700004930793059206938DF853301A9301262E
:10158000052221784E4800F043FA671C049B38B1CD
:101590004B4A801A06FA00F0184304903C46EFE7E5
:1015A000D90644BF20228DF853201A0744BF2B22AE
:1015B0008DF8532022782A2A03D0079A00210A2086
:1015C0000BE0039A111D12680391002A10DA5242AF
:1015D00043F00200079204900BE0274601343B7869
:1015E000303B092B03D800FB02320121F5E701B1A2
:1015F00007923B782E2B1ED17B782A2B0AD1039B96
:101600001A1D1B680392002BB8BF4FF0FF3302373F
:10161000059310E000230593781C19460A24074619
:1016200001303A78303A092A03D804FB012101231A
:10163000F5E703B1059103223978224800F0E8F973
:1016400040B14023CBEB000003FA00F0049B1843A9
:101650000490013739781C488DF8281006227E1C2A
:1016600000F0D6F988B1194B33B9039B073323F047
:1016700007030833039314E003AB00932A46144B8B
:1016800004A94046AFF3008007E003AB00932A466D
:101690000F4B04A9404600F093F8B0F1FF3F82469B
:1016A00003D0099B5344099342E7AB895B0601D4FD
:1016B000099801E04FF0FF301DB0BDE8F08F00BF8A
:1016C0001E1E0008241E0008281E0008000000003E
:1016D000391400082DE9F04791461F460A698B68C6
:1016E000DDF820809342B8BF1346C9F8003091F866
:1016F000432006460C4612B10133C9F80030236876
:10170000990642BFD9F800300233C9F80030256885
:1017100015F0060510D104F1190A07E0012352461D
:1017200039463046C04701301AD00135E368D9F850
:1017300000209B1A9D42F1DB94F84330226800336D
:1017400018BF012392060FD5E1185A1C302081F8EA
:101750004300224494F8451082F84310023303E01A
:101760004FF0FF30BDE8F08704F1430239463046C0
:10177000C0470130F4D02268D9F80050E36802F085
:101780000602042A08BF5D1B2269A3680CBF25EA74
:10179000E57500259342C4BF9B1AED184FF0000970
:1017A0001A344D4509D00123224639463046C047F8
:1017B0000130D5D009F10109F3E70020BDE8F08739
:1017C0002DE9F04317460A7E85B06E2A98460646F4
:1017D0000C460C9B01F1430E00F0AE8011D8632A39
:1017E00022D009D8002A00F0BB80582A40F0CA80D5
:1017F00081F84520834955E0642A1ED0692A1CD00F
:10180000C0E0732A00F0B08009D86F2A2ED0702A69
:1018100040F0B8800A6842F020020A603EE0752A73
:1018200024D0782A3AD0ADE01A6801F14205111DA2
:101830001960136884F84230A8E021681A6811F032
:10184000800F02D0111D196008E011F0400F02F165
:101850000401196002D0B2F9003000E01368002BD7
:101860003CDA2D225B4284F8432037E021681A6875
:1018700011F0800F02D0111D196007E011F0400F28
:1018800002F10401196001D0138800E01368227E80
:101890005C496F2A14BF0A2208221BE078225A49A9
:1018A00084F845202268186812F0800F00F10405C2
:1018B0001D6003D1550601D5038800E00368D007F9
:1018C00044BF42F0200222601BB9226822F02002AD
:1018D00022601022002084F8430001E049490A22D6
:1018E0006568A560002D08DB206820F004002060FA
:1018F0002BB9002D7DD175460CE0002B79D07546B3
:10190000B3FBF2F002FB1033CB5C05F8013D03465C
:101910000028F5D1082A0BD12368DA0708D52369F6
:1019200062689A42DEBF302305F8013C05F1FF35BD
:10193000C5EB0E0323612EE008681A68496910F0B0
:10194000800F03D0101D1860136808E010F0400FDE
:1019500002F104001860136801D0198000E01960DA
:1019600000232361754616E01A68111D1960156879
:1019700062680021284600F04BF808B1401B606007
:10198000636804E004F1420584F8422001232361E6
:10199000002384F84330CDF800803B4603AA21465B
:1019A0003046FFF797FE013002D14FF0FF3026E0BE
:1019B00023692A4639463046C0470130F5D02368AE
:1019C0009B0710D5002504F1190907E001234A46B9
:1019D00039463046C0470130E7D00135E368039A05
:1019E0009B1A9D42F2DBE068039B9842B8BF184601
:1019F00005E00B7884F8423004F142058AE705B02F
:101A0000BDE8F0832F1E0008401E00080000000003
:101A100001F0FF01102A2BDB10F0070F08D010F89F
:101A2000013B013A8B422DD010F0070F42B3F6D1A3
:101A3000F0B441EA012141EA014122F007047FF0BC
:101A400000070023F0E80256083C85EA010586EA13
:101A5000010685FA47F5A3FA87F586FA47F6A5FA4F
:101A600087F68EB9EED1F0BC01F0FF0102F007025B
:101A700032B110F8013B013A83EA010313B1F8D106
:101A80000020704701387047002D06BF35460338E7
:101A9000073815F0010F07D1013015F4807F02BF20
:101AA000013015F4C03F0130F0BC0138704700BF71
:101AB00010B5431E0A44914204D011F8014B03F8BB
:101AC000014FF8E710BD884210B501EB020301D8C1
:101AD000421E0BE09842FBD28118D21AD34204D0A6
:101AE00013F8014D01F8014DF8E710BD994204D0FB
:101AF00011F8014B02F8014FF8E710BDF8B50746A1
:101B000015460E4621B91146BDE8F840FFF792BBD5
:101B10001AB9FFF743FC2846F8BD00F015F88542D6
:101B20000ED929463846FFF785FB044650B13146A9
:101B30002A46FFF7BDFF31463846FFF72FFC01E08C
:101B40003046F8BD2046F8BD51F8040C0028BEBF51
:101B5000091851F8043CC018043870473A747400EE
:101B60002F746D7000000000537461636B20667207
:101B7000616D653A0A000000205230203D2020258A
:101B80003038580A00000000205231203D20202526
:101B90003038580A00000000205232203D20202515
:101BA0003038580A00000000205233203D20202504
:101BB0003038580A0000000020523132203D2025E4
:101BC0003038580A00000000204C52203D202025CB
:101BD0003038580A00000000205043203D202025C6
:101BE0003038580A0000000020505352203D202574
:101BF0003038580A000000004653522F4641523AEE
:101C00000A0000002043465352203D202025303852
:101C1000580A00002048465352203D2020253038E5
:101C2000580A00002044465352203D2020253038D9
:101C3000580A00002041465352203D2020253038CC
:101C4000580A0000204D4D464152203D2025303895
:101C5000580A00002042464152203D2020253038BD
:101C6000580A00004D6973630A000000204C522F8F
:101C70004558435F52455455524E3D202530385803
:101C80000A0000005B486172644661756C745D0A0D
:101C9000000000005B4275734661756C745D0A005C
:101CA0005B55736167654661756C745D0A00000081
:101CB0006F770A0068690A00002020202020202079
:101CC00020202828282828202020202020202020EC
:101CD00020202020202020202088101010101010FC
:101CE0001010101010101010100404040404040448
:101CF00004040410101010101010414141414141E2
:101D000001010101010101010101010101010101C3
:101D100001010101101010101010424242424242D3
:101D20000202020202020202020202020202020293
:101D3000020202021010101020000000000000003B
:101D40000000000000000000000000000000000093
:101D50000000000000000000000000000000000083
:101D60000000000000000000000000000000000073
:101D70000000000000000000000000000000000063
:101D80000000000000000000000000000000000053
:101D90000000000000000000000000000000000043
:101DA0000000000000000000000000000000000033
:101DB0000000000000000000000000000000000023
:101DC0000000000000000000000000000000000013
:101DD0000000000000000000000000000000000003
:101DE00000000000000000000000000000000000F3
:101DF00000000000000000000000000000000000E3
:101E000000000000000000000000000000000000D2
:101E10000000000000000000000000004300232D2F
:101E2000302B2000686C4C006566674546470030E3
:101E30003132333435363738394142434445460030
:101E40003031323334353637383961626364656630
:011E50000091
:101E54007856341200000000000000000102030460
:101E64000607080900A24A04B81C00080000000084
:101E7400BC1D0008DC1D0008FC1D0008000000005B
:101E84000000000000000000000000001C1E00080C
:101E9400000000000000000000000000000000003E
:101EA400000000000000000000000000000000002E
:101EB400000000000000000000000000000000001E
:101EC4000000000000000000000000001C000020D2
:041ED4003254769876
:040000050800018965
:00000001FF
