:020000040800F2
:1000000000A00020B9020008C1020008C5020008D3
:10001000390300083D0300088503000800000000C4
:10002000000000000000000000000000CD030008F8
:10003000D103000800000000D5030008D903000820
:10004000E9030008E9030008E9030008E9030008E0
:10005000E9030008E9030008910C0008E90300081F
:10006000E9030008E9030008E9030008E9030008C0
:10007000E9030008E9030008E9030008E9030008B0
:10008000E9030008E9030008E9030008E9030008A0
:10009000E9030008E9030008E9030008E903000890
:1000A000E9030008E9030008E9030008E903000880
:1000B000E9030008E10C0008E9030008E90300086F
:1000C000E9030008E9030008E9030008E903000860
:1000D000E9030008E9030008E9030008E903000850
:1000E000E9030008E9030008E9030008E903000840
:1000F000E9030008E9030008E9030008E903000830
:10010000000000000000000000000000E9030008FB
:10011000E9030008E9030008E9030008E90300080F
:10012000E9030008E9030008E9030008E9030008FF
:10013000E9030008E90300080000000000000000D7
:10014000E9030008E9030008E903000800000000D3
:10015000000000000000000000000000000000009F
:100160000000000000000000E9030008E9030008A7
:10017000E90300080000000000000000000000008B
:1001800000000000E903000800B583B000F088FA21
:10019000384B394A1360394A136039490CE00A6810
:1001A0004B6801F10C04886803E01168196004339E
:1001B00004329842F9D82146324B9942EFD32E4B64
:1001C0001A68314B9A4204D12C4B1A682F4B9A4231
:1001D00000D0FEE7274B2E4A13602E4A13602E4BA9
:1001E0000AE0194651F8082B5B6802E00020106015
:1001F00004329A42FAD30B46284A9342F1D3244B55
:100200001B6813B9234B1B6803B1FEE700F05AFAD1
:10021000694601A800F08AF9214C224B1C1BA4104E
:10022000002504E01E4B53F8253098470135AC42B9
:10023000F8DC1D4C1D4B1C1BA410002504E01A4BC0
:1002400053F8253098470135AC42F8DC0099019805
:1002500000F080FD0546164C164B1C1BA41004E054
:10026000013C134B53F824309847002CF8DC284607
:1002700000F0F8F8BABADECA0000002080000020C2
:10028000EC030008040400087856341232547698BF
:100290008400002044020020040400081404000824
:1002A00014040008140400081404000814040008CE
:1002B000140400081404000808B5FFF765FF00BF28
:1002C00000BEFEE71EF0040F0CBFEFF30880EFF353
:1002D00009807146414A10472DE9F04182B0044639
:1002E0008846134B5E6B9F6B9D6A1B6B13F0020F6E
:1002F0000DD00F4BDB6A002B09DA4BF6AB6100F037
:100300005DFA20B14FF00042094BDA620CE0094877
:1003100000F078F9CDF800803B4632462946204669
:1003200000F0D4F900BEFEE702B0BDE8F08100BFE6
:1003300000ED00E0B41C000800BEFEE71EF0040F54
:100340000CBFEFF30880EFF309807146244A104791
:100350002DE9F04182B004468846084B5E6B9F6BE6
:100360009D6A074800F04EF9CDF800803B463246C2
:100370002946204600F0AAF900BEFEE700ED00E0A5
:10038000C41C00081EF0040F0CBFEFF30880EFF34D
:1003900009807146134A10472DE9F04182B00446A6
:1003A0008846084B5E6B9F6B9D6A074800F02AF9F0
:1003B000CDF800803B4632462946204600F086F9BB
:1003C00000BEFEE700ED00E0D01C000800BEFEE726
:1003D00000BEFEE700BEFEE770470000D90200083D
:0C03E000510300089903000800BEFEE76E
:1003EC00901E00080000002084000020901E0008D1
:1003FC0000000010000000108400002048020020C3
:08040C000000001000000010C8
:1004200008B50D4B1B6813B90C4A0B4B1A600A4BED
:100430001A68C31C23F00303134409498B4206D9ED
:1004400000F00CFF0C2303604FF0FF3008BD0249A1
:100450000B60104608BD00BF880000204802002045
:10046000009C002000B508B9044D00E0044D18249C
:1004700020462946ABBE0446FEE700BF2600020028
:10048000230002002DE9F04184B0234F0197032699
:10049000039600230293012401AD20462946ABBEFA
:1004A00080461E4BC3F800800197039604230293F5
:1004B00020462946ABBE8046194BC3F80080019701
:1004C00003960823029320462946ABBE0446154BEB
:1004D0001C60B4F1FF3F03D1114B1A68114B1A6035
:1004E000002305E04FF0FF310F4A42F8331001338B
:1004F000132BF7DD0C4B094A12681A6000225A6070
:10050000074909689960DA600649096819615A6102
:1005100004B0BDE8F08100BF8C1B000890000020F3
:100520008C000020BC00002010010020F0B583B03A
:1005300006460D46304B00934F2301936F4615241A
:1005400020463946ABBE0446002C42D12A4B83F8E4
:100550004F40009A2746214636E0E1B92748006817
:10056000184490F90100002803DB092B03D1012076
:1005700002E0012000E0002028BB082C2ADC222B0E
:1005800001D0272B01D101321F461D4B43F82420F7
:100590000134012117E02FB19F4214D100211170C5
:1005A0000F4610E015480068184490F90100002833
:1005B00003DB092B03D1012302E0012300E0002328
:1005C0000BB100211170013292F90030002BC4D11F
:1005D00000E000242CB9084B00221A70084A13606E
:1005E0000134074B002243F8242034602B60FFF7CE
:1005F00049FF03B0F0BD00BFC0000020180000207C
:10060000940000200FB400B583B004AB53F8042B62
:1006100001938021064800F0CBFE002803DD01464F
:10062000034800F039F803B05DF804EB04B07047FC
:10063000B00100202DE9F04385B004460F46435633
:1006400013BB042528462146ABBE04461FE03546B1
:10065000102E28BF1025002306E014F9011B04AA60
:100660001A4402F8101C0133AB42F6D304AA134417
:10067000002203F8102CE9464FF004084046494692
:10068000ABBE8046761B00E00E46002EDFD138461A
:1006900005B0BDE8F08300BF08B5FFF7CBFF08BD8C
:1006A00008B500F063F9054B054A9A60D3F8882035
:1006B00042F47002C3F8882008BD00BF00ED00E0DE
:1006C0000000000808B500F089F908BDF8B5044637
:1006D0000D4617461E462648FFF794FF2168254819
:1006E000FFF790FF61682448FFF78CFFA16823485B
:1006F000FFF788FFE1682248FFF784FF216921485E
:10070000FFF780FF61692048FFF77CFFA1691F4860
:10071000FFF778FFE1691E48FFF774FF1D48FFF7F8
:1007200071FF29461C48FFF76DFF1C4CE16A1C480D
:10073000FFF768FF216B1B48FFF764FFE16B1A4866
:10074000FFF760FF15F0800F03D039461748FFF719
:1007500059FF15F4004F03D031461548FFF752FFFB
:100760001448FFF74FFF06991348FFF74BFFF8BDFA
:10077000981B0008A81B0008B81B0008C81B00082D
:10078000D81B0008E81B0008F81B0008081C00081C
:10079000181C0008281C0008341C000800ED00E0AC
:1007A000441C0008541C0008641C0008741C000849
:1007B000841C0008941C00089C1C000838B5836940
:1007C0001B888B426FD1044603684568013B302B80
:1007D0006BD8DFE803F0421D63635A2C2F291919E7
:1007E0006A19191919193219206A19236A356A6A9E
:1007F0006A6A6A6A6A6A6A6A6A6A6A6A6A6A6A6A59
:100800006A6A6A6A6A1919004FF0FF33036045E0AB
:100810000023036042E0002303603FE000232B60DD
:100820006B60AB60EB6039E00023036036E0AB68DF
:10083000036033E00023036030E0002303602DE019
:10084000BFF34F8F1A49CA6802F4E062194B134391
:10085000CB60BFF34F8F00BFFDE71749286800F05A
:1008600071FD70B96B6813B90123236016E0042B86
:1008700002D10223236011E0082B02D1032323605D
:100880000CE04FF0FF33236008E02B68023B012BA4
:1008900002D80023036001E0AB680360A369023360
:1008A000A361012038BD002038BD002038BD00BF45
:1008B00000ED00E00400FA058C1B000882B0002364
:1008C00001930093274A136843F480331360254B48
:1008D0001B6803F400330093019B01330193009BD9
:1008E0001BB9019BB3F5A06FF1D11E4B1B6813F42C
:1008F000003F02D00123009301E000230093009BFE
:10090000012B2CD11222184B1A60A3F580535A6880
:100910005A605A685A605A6842F480625A605A684B
:1009200022F47C125A605A6842F4E8125A601A683B
:1009300042F080721A600B4B1B6813F0007FFAD0F4
:10094000084B5A6822F003025A605A6842F00202C9
:100950005A60044B5B6803F00C03082BF9D102B01A
:10096000704700BF001002400020024010B5174C35
:10097000D4F8883043F47003C4F88830144B1A68F4
:1009800042F001021A605968124A0A405A601A6815
:1009900022F0847222F480321A601A6822F48022D3
:1009A0001A605A6822F4FE025A60DA6A22F00F02D4
:1009B000DA62196B084A0A401A6300229A60FFF74C
:1009C0007DFF4FF00063A36010BD00BF00ED00E0AD
:1009D000001002400CC07FF8CCFC00FF1D4B5B6890
:1009E00003F00C03042B06D0082B08D01BBB1A4ABB
:1009F0001A4B1A6022E0184A184B1A601EE0154A7A
:100A000053685268C3F38343023312F4803F05D125
:100A1000134A02FB03F3114A13600FE00D4AD26A36
:100A200002F00F02511C0C4AB2FBF1F202FB03F37D
:100A30000A4A136002E0084A084B1A60054B5B68DB
:100A4000C3F30313074AD35CDAB204490B68D340FB
:100A50000B6070470010024000127A001400002062
:100A600000093D000400002008B540F2912000F08C
:100A7000B7FB40F2952000F0B3FB40F2922000F06B
:100A8000AFFB40F2962000F0ABFB40F20B3000F0E1
:100A9000A7FB40F20D3000F0A3FB40F2813000F0E4
:100AA0009FFB4FF4407000F09BFB08BD38B51D4D17
:100AB0004FF4007300220221284600F05AF91A4C24
:100AC0004FF4807300220221204600F052F94FF4C7
:100AD000007300220221204600F04BF9022300227D
:100AE0000121204600F045F90123022200214FF0A8
:100AF000904000F03EF94FF400720221284600F0C9
:100B00005AF94FF480720A21204600F054F94FF44C
:100B100000720A21204600F04EF90221204600F022
:100B200023F938BD001000480004004870B54E4D50
:100B3000284600F069F94D4C204600F065F94C4E0E
:100B4000304600F061F900231A461946284600F0A5
:100B50009EF900231A461946204600F098F9002312
:100B60001A461946304600F092F940F257212846BD
:100B700000F0A0F940F25721204600F09BF94EF614
:100B80006021304600F096F906220021284600F048
:100B900095F906220221204600F090F90622042150
:100BA000204600F08BF90021284600F053FA02217C
:100BB000204600F04FFA0421204600F04BFA0621AF
:100BC000304600F047FA42F6E0620021284600F085
:100BD00075FA4FF496620221204600F06FFA002267
:100BE0000421204600F06AFA45F6B651284600F086
:100BF00063F940F65F11204600F05EF940F65F11A0
:100C0000204600F059F940F2AF41304600F054F967
:100C1000284600F063FA204600F060FA284600F00B
:100C20003FF9204600F03CF9304600F039F92846FB
:100C300000F03BF9204600F038F9304600F035F975
:100C40001D2000F0EDFA01211D2000F0F7FA01212E
:100C5000304600F00FF9062000F0E2FA01210620EC
:100C600000F0ECFA70BD00BF002C014000340140E0
:100C70000004004008B54FF09041012000F070FAE8
:100C80000221012000F038FA012000F053FA08BDDB
:100C900010B5012000F05EFAC8B14FF0904000F0AE
:100CA00065F800F001000A4C2080218889B20948CB
:100CB000FFF7A8FC23889BB21BB10748FFF7A2FCF3
:100CC00002E00648FFF79EFC012000F03DFA10BD4F
:100CD00040020020E01C0008E41C0008EC1C000896
:100CE00010B50121184800F0C9F858B30121164881
:100CF00000F0CAF8154B1B7813F0FF0F0FD101223B
:100D0000124B1A70124C4FF496620221204600F0EA
:100D1000D5F900220421204600F0D0F910BD0B4B7C
:100D20001B7813F0FF0F0DD00022084B1A70084CEF
:100D30000221204600F0C2F94FF4966204212046B9
:100D400000F0BCF910BD00BF0004004030020020DC
:100D50000034014008B5FFF787FEFFF7A7FEFFF755
:100D6000E5FEFFF787FFFEE781617047006980B20B
:100D700070472DE9F0410668C568002443FA04F77E
:100D8000FF0711D567004FF0030C0CFA07FC6FEA60
:100D90000C0C01FA07F80CEA06060CEA050502FA43
:100DA00007F746EA08063D430134102CE6D10660F9
:100DB000C560BDE8F081F0B5056A446A002342FAD7
:100DC00003F6F70707D59E000F27B74025EA07056A
:100DD00001FA06F635430133082BF0D1002303F165
:100DE000080642FA06F6F60707D59E000F27B74019
:100DF00024EA070401FA06F634430133082BEED146
:100E000005624462F0BD0000184B984225D00DD811
:100E1000A3F5406398421AD003F58063984219D035
:100E2000B0F1804F20D14FF400701BE0104B98427E
:100E30000AD003F50063984212D0A3F5903398428C
:100E400012D140F205200DE040F28B100AE040F292
:100E5000012007E040F2022004E04FF4017001E0BD
:100E600040F28D1000F0CAB9704700BF001000407A
:100E7000002C0140C3681943C160704703690B42ED
:100E80000CBF002001207047C9430161704710B5B5
:100E90000468134324F45C7419430C43046010BDCC
:100EA000036823F0080303607047036843F00103FD
:100EB0000360704781627047C1627047062900F283
:100EC000C880DFE811F00700C6003600C6006800E1
:100ED000C6009600836923F00303836183698361FD
:100EE000836923F070038361072A00F2B280DFE890
:100EF00002F03304080C1014181C836943F010032B
:100F000047E0836943F0200343E0836943F0300303
:100F10003FE0836943F040033BE0836943F05003C3
:100F200037E0836943F0600333E0836943F0700383
:100F30002FE0836923F4407383618369836183694C
:100F400023F4E0438361072A00F28380DFE802F0A4
:100F500004060A0E12161A1E83691AE0836943F406
:100F6000805316E0836943F4005312E0836943F42D
:100F700040530EE0836943F480430AE0836943F4FD
:100F8000A04306E0836943F4C04302E0836943F46D
:100F9000E04383617047C36923F00303C361C369FE
:100FA000C361C36923F07003C361072A51D8DFE826
:100FB00002F03204080C1014181CC36943F010032B
:100FC00046E0C36943F0200342E0C36943F03003C5
:100FD0003EE0C36943F040033AE0C36943F0500385
:100FE00036E0C36943F0600332E0C36943F0700345
:100FF0002EE0C36923F44073C361C369C361C3694D
:1010000023F4E043C361072A23D8DFE802F0040693
:101010000A0E12161A1EC3691AE0C36943F48053FC
:1010200016E0C36943F4005312E0C36943F440532C
:101030000EE0C36943F480430AE0C36943F4A0436C
:1010400006E0C36943F4C04302E0C36943F4E043EC
:10105000C3617047062915D8DFE801F004140814AD
:101060000C141000036A43F001030AE0036A43F022
:10107000100306E0036A43F4807302E0036A43F45A
:10108000805303620C4B984203D003F500639842EF
:1010900011D1032907D0052909D001290BD1036AF1
:1010A00043F0040306E0036A43F0400302E0036AEE
:1010B00043F4806303627047002C014006290CD87A
:1010C000DFE801F0040B060B080B0A0042637047CF
:1010D00082637047C263704702647047054B984251
:1010E00003D003F50063984203D1436C43F40043FB
:1010F00043647047002C014001290BD002D3022920
:101100000DD070470A4B1A6802431A605A6822EAE7
:1011100000000AE0064B1A6822EA000202E0044BD3
:101120001A6802431A605A6810435860704700BF3B
:1011300008040140034B1A6802431A605A681043BE
:101140005860704700040140014B1860704700BFB1
:1011500014040140014B1B681840704714040140FF
:10116000F0B50023012202FA03F404422BD0184CFC
:10117000A14213D007D8A4F50064A14213D0154AA8
:10118000914209D006E0144A914209D002F58062EA
:10119000914207D0002206E0022204E0032202E08E
:1011A000042200E005220D4C23F00306344403F032
:1011B0000305AD0026680F27AA4007FA05F526EAC1
:1011C00005052A4322600133102BCBD1F0BD00BFAF
:1011D000000C0048000800480010004808000140CA
:1011E000430903F1804303F5043300F01F001A683C
:1011F000012101FA00F0104318607047430903F120
:10120000804303F5043300F01F001A68012101FA3E
:1012100000F002431A601A6822EA00001860704762
:10122000054B420903EB820300F01F00012202FA82
:1012300000F01860704700BF00E100E0502804D9BA
:1012400000F00F00044BC154704700F1604000F5FE
:1012500064400170704700BF14ED00E0014B186856
:10126000704700BF7C00002070B5CD1C25F0030541
:1012700008350C2D38BF0C25002D064601DBA94290
:1012800002D90C23336046E000F0A0F8234B1C6821
:101290001A462146A1B10B685B1B0ED40B2B03D958
:1012A0000B60CC18CD501EE08C420DBF63684B68BC
:1012B0006360136018BF0C4615E00C464968E9E707
:1012C000174C23681BB9304600F02CF820602946E3
:1012D000304600F027F8431C18D0C41C24F0030447
:1012E000A0420DD12560304600F071F804F10B00EA
:1012F000231D20F00700C31A0ED05A42E25070BDE1
:10130000211A304600F00EF80130EBD10C23336087
:10131000304600F05CF8002070BD00BF38020020AD
:101320003402002038B5064C0023054608462360E9
:10133000FFF776F8431C02D1236803B12B6038BD58
:101340003C02002010F8012B11F8013B012A28BFB4
:101350009A42F7D0D01A704730B5141E05469BB09C
:10136000184604DA8B232B604FF0FF301DE04FF45A
:101370000273ADF80C3014BF04F1FF33234602931F
:1013800005934FF6FF7300910491ADF80E300246BD
:101390001E9B6946284600F0C3F8431CBCBF8B2344
:1013A0002B6014B1009B00221A701BB030BD0000EE
:1013B00007B5009313460A46014603480068FFF745
:1013C000CBFF03B05DF804FB7C0000207047704742
:1013D00038B50546002946D051F8043C0C1F002BB7
:1013E000B8BFE418FFF7F2FF1F4A1368114613B99C
:1013F0006360146032E0A3420ED92268A0188342D1
:1014000004BF18685B68636004BF121822600C6038
:1014100024E0A24203D813465A68002AF9D118687A
:101420001918A1420BD12168014458188242196051
:1014300014D1106852685A60014419600EE002D954
:101440000C232B600AE021686018824204BF1068F8
:101450005268626004BF091821605C602846BDE8DC
:101460003840FFF7B4BF38BD380200202DE9F047FF
:101470008E689E4282460C46914698463ED88A899E
:1014800012F4906F3AD0256809696F1A65690223D2
:1014900005EB450595FBF3F57B1C43449D4238BFA6
:1014A0001D4653050FD52946FFF7DEFE064698B1C7
:1014B0003A46216900F014FBA38923F4906343F0BA
:1014C0008003A38113E02A4600F030FB064670B982
:1014D00021695046FFF77CFF0C23CAF80030A3892E
:1014E00043F04003A3814FF0FF30BDE8F087266151
:1014F00065613E44ED1B2660A5604646464528BF13
:10150000464632464946206800F0F5FAA3689B1B20
:10151000A36023681E4426600020BDE8F087000019
:101520002DE9F04F9DB0804603938B891C060D4634
:1015300016460DD50B695BB94021FFF795FE286073
:10154000286118B90C23C8F80030CDE040236B6146
:101550000023099320238DF82930DFF89CB1302334
:101560008DF82A3037463C4614F8013B1BB9B7EBDF
:10157000060910D003E0252BF9D02746F3E74B46A8
:10158000324629464046FFF771FF013000F0A78040
:10159000099B4B4409933B78002B00F0A08000236B
:1015A0004FF0FF3204930793059206938DF8533062
:1015B0001A930126052221784E4800F041FA671C53
:1015C000049B38B14B4A801A06FA00F01843049085
:1015D0003C46EFE7D90644BF20228DF853201A0776
:1015E00044BF2B228DF8532022782A2A03D0079A51
:1015F00000210A200BE0039A111D12680391002AB2
:1016000010DA524243F00200079204900BE02746A2
:1016100001343B78303B092B03D800FB0232012117
:10162000F5E701B107923B782E2B1ED17B782A2B50
:101630000AD1039B1A1D1B680392002BB8BF4FF001
:10164000FF330237059310E000230593781C1946F9
:101650000A24074601303A78303A092A03D804FBB5
:1016600001210123F5E703B10591032239782248CE
:1016700000F0E6F940B14023CBEB000003FA00F0A4
:10168000049B18430490013739781C488DF82810C2
:1016900006227E1C00F0D4F988B1194B33B9039BA4
:1016A000073323F007030833039314E003AB0093DD
:1016B0002A46144B04A94046AFF3008007E003AB71
:1016C00000932A460F4B04A9404600F093F8B0F16E
:1016D000FF3F824603D0099B5344099342E7AB89FD
:1016E0005B0601D4099801E04FF0FF301DB0BDE862
:1016F000F08F00BF5A1E0008601E0008641E00081C
:10170000000000006D1400082DE9F04791461F46C7
:101710000A698B68DDF820809342B8BF1346C9F888
:10172000003091F8432006460C4612B10133C9F847
:1017300000302368990642BFD9F800300233C9F857
:101740000030256815F0060510D104F1190A07E0EC
:101750000123524639463046C04701301AD0013580
:10176000E368D9F800209B1A9D42F1DB94F84330DE
:101770002268003318BF012392060FD5E1185A1CC6
:10178000302081F84300224494F8451082F8431039
:10179000023303E04FF0FF30BDE8F08704F143026D
:1017A00039463046C0470130F4D02268D9F800509D
:1017B000E36802F00602042A08BF5D1B2269A368E1
:1017C0000CBF25EAE57500259342C4BF9B1AED18AE
:1017D0004FF000091A344D4509D0012322463946FD
:1017E0003046C0470130D5D009F10109F3E70020A8
:1017F000BDE8F0872DE9F04317460A7E85B06E2AD2
:10180000984606460C460C9B01F1430E00F0AE8054
:1018100011D8632A22D009D8002A00F0BB80582AA8
:1018200040F0CA8081F84520834955E0642A1ED0E3
:10183000692A1CD0C0E0732A00F0B08009D86F2A52
:101840002ED0702A40F0B8800A6842F020020A6068
:101850003EE0752A24D0782A3AD0ADE01A6801F12A
:101860004205111D1960136884F84230A8E0216810
:101870001A6811F0800F02D0111D196008E011F0F4
:10188000400F02F10401196002D0B2F9003000E00B
:101890001368002B3CDA2D225B4284F8432037E0AA
:1018A00021681A6811F0800F02D0111D196007E03D
:1018B00011F0400F02F10401196001D0138800E01B
:1018C0001368227E5C496F2A14BF0A2208221BE09B
:1018D00078225A4984F845202268186812F0800F4F
:1018E00000F104051D6003D1550601D5038800E011
:1018F0000368D00744BF42F0200222601BB922686F
:1019000022F0200222601022002084F8430001E02F
:1019100049490A226568A560002D08DB206820F08F
:10192000040020602BB9002D7DD175460CE0002B02
:1019300079D07546B3FBF2F002FB1033CB5C05F8AF
:10194000013D03460028F5D1082A0BD12368DA07A8
:1019500008D5236962689A42DEBF302305F8013C4E
:1019600005F1FF35C5EB0E0323612EE008681A6808
:10197000496910F0800F03D0101D1860136808E04B
:1019800010F0400F02F104001860136801D01980B4
:1019900000E0196000232361754616E01A68111DE6
:1019A0001960156862680021284600F049F808B1FE
:1019B000401B6060636804E004F1420584F8422043
:1019C00001232361002384F84330CDF800803B4697
:1019D00003AA21463046FFF797FE013002D14FF0AF
:1019E000FF3026E023692A4639463046C047013099
:1019F000F5D023689B0710D5002504F1190907E0ED
:101A000001234A4639463046C0470130E7D0013508
:101A1000E368039A9B1A9D42F2DBE068039B9842BD
:101A2000B8BF184605E00B7884F8423004F142054F
:101A30008AE705B0BDE8F0836B1E00087C1E000835
:101A400001F0FF01102A2BDB10F0070F08D010F86F
:101A5000013B013A8B422DD010F0070F42B3F6D173
:101A6000F0B441EA012141EA014122F007047FF08C
:101A700000070023F0E80256083C85EA010586EAE3
:101A8000010685FA47F5A3FA87F586FA47F6A5FA1F
:101A900087F68EB9EED1F0BC01F0FF0102F007022B
:101AA00032B110F8013B013A83EA010313B1F8D1D6
:101AB0000020704701387047002D06BF35460338B7
:101AC000073815F0010F07D1013015F4807F02BFF0
:101AD000013015F4C03F0130F0BC0138704700BF41
:101AE00010B5431E0A44914204D011F8014B03F88B
:101AF000014FF8E710BD884210B501EB020301D891
:101B0000421E0BE09842FBD28118D21AD34204D075
:101B100013F8014D01F8014DF8E710BD994204D0CA
:101B200011F8014B02F8014FF8E710BDF8B5074670
:101B300015460E4621B91146BDE8F840FFF794BBA3
:101B40001AB9FFF745FC2846F8BD00F015F88542A4
:101B50000ED929463846FFF787FB044650B1314677
:101B60002A46FFF7BDFF31463846FFF731FC01E05A
:101B70003046F8BD2046F8BD51F8040C0028BEBF21
:101B8000091851F8043CC018043870473A747400BE
:101B90002F746D7000000000537461636B206672D7
:101BA000616D653A0A000000205230203D2020255A
:101BB0003038580A00000000205231203D202025F6
:101BC0003038580A00000000205232203D202025E5
:101BD0003038580A00000000205233203D202025D4
:101BE0003038580A0000000020523132203D2025B4
:101BF0003038580A00000000204C52203D2020259B
:101C00003038580A00000000205043203D20202595
:101C10003038580A0000000020505352203D202543
:101C20003038580A000000004653522F4641523ABD
:101C30000A0000002043465352203D202025303822
:101C4000580A00002048465352203D2020253038B5
:101C5000580A00002044465352203D2020253038A9
:101C6000580A00002041465352203D20202530389C
:101C7000580A0000204D4D464152203D2025303865
:101C8000580A00002042464152203D20202530388D
:101C9000580A00004D6973630A000000204C522F5F
:101CA0004558435F52455455524E3D2025303858D3
:101CB0000A0000005B486172644661756C745D0ADD
:101CC000000000005B4275734661756C745D0A002C
:101CD0005B55736167654661756C745D0A00000051
:101CE00025750A00484947480A0000004C4F570A2A
:101CF0000000000000202020202020202020282874
:101D000028282820202020202020202020202020BB
:101D100020202020208810101010101010101010FB
:101D2000101010101004040404040404040404102B
:101D300010101010101041414141414101010101B9
:101D40000101010101010101010101010101010183
:101D5000101010101010424242424242020202028F
:101D60000202020202020202020202020202020253
:101D70001010101020000000000000000000000003
:101D80000000000000000000000000000000000053
:101D90000000000000000000000000000000000043
:101DA0000000000000000000000000000000000033
:101DB0000000000000000000000000000000000023
:101DC0000000000000000000000000000000000013
:101DD0000000000000000000000000000000000003
:101DE00000000000000000000000000000000000F3
:101DF00000000000000000000000000000000000E3
:101E000000000000000000000000000000000000D2
:101E100000000000000000000000000000000000C2
:101E200000000000000000000000000000000000B2
:101E300000000000000000000000000000000000A2
:101E40000000000000000000000000000000000092
:101E500000000000000000004300232D302B200074
:101E6000686C4C0065666745464700303132333454
:101E700035363738394142434445460030313233F4
:0D1E800034353637383961626364656600B9
:101E90007856341200000000000000000102030424
:101EA0000607080900A24A04F41C0008000000000C
:101EB000F81D0008181E0008381E00080000000069
:101EC000000000000000000000000000581E000894
:101ED0000000000000000000000000000000000002
:101EE00000000000000000000000000000000000F2
:101EF00000000000000000000000000000000000E2
:101F00000000000000000000000000001C00002095
:041F10003254769839
:040000050800018965
:00000001FF
